:10000000000000308A009128AB010408AA002B10E0
:10001000831B2B14A41F1428AA172A1EAA0AA3099B
:10002000A409A30A0319A40A240EF038A600A607FF
:10003000E23EA700323EA90024080F39A707A70710
:10004000A907E93EA800A807A807230E0F39A807AB
:10005000A907A80DA90DA909A90D23080F39A907FA
:10006000A60D0730A5000A30A907A803031C3428F1
:10007000A807A703031C3828A707A603031C3C28CE
:10008000A607A503031C40282530840083130730EE
:100090002A052A1384032A05031D55282A1A840ACF
:1000A0002A1A55282030F7007228840729300402C4
:1000B00003192A170008F700031D66282A1B662863
:1000C0002A1A7628AA19662820307128AA1F6E28B5
:1000D0002D30F70084032A13AA137228AA152A12B6
:1000E0003030F70777080C1E73289900840A2A1FFE
:1000F00056288A110A12CB28243084008313000862
:10010000031990280330F800F701F70B8528F80B46
:1001100084283C30F700F70B8B288E28800B822830
:10012000080003081F398300403083169900A63069
:10013000980090308312980083161F149F141F1587
:100140009F1107309C0083131F109F141F159F15CC
:100150001F1383121F179F1783169F1783121F14D5
:100160000030F8001F08C73978049F001030F700EE
:10017000F70BB82800001F151F19BC2883161E088E
:100180008312A1001E08A200023084002208A400ED
:100190002108A30004280D300C1ECC28990004303F
:1001A000A300FA30A4007C20A30BD12883160810EA
:1001B000013083128806C830A4007C208316881082
:1001C000023083128806C830A4007C2083160811F0
:1001D0000430831288060330A4007C20B028EF2866
:02400E003A373F
:00000001FF
;PIC16F877A
;CRC=6B7A  CREATED="27-jun-15 19:02"
