:1000000086EF00F0EACF0EF0E9CF0DF007AE08D092
:100010000D8E0DA80D2A061E071E062AD8B4072A23
:100020000738F009096E0926E20F0A6E320F0C6ECE
:1000300007500F0B0A260A260C26E90F0B6E0B261B
:100040000B2606380F0B0B260C260B360C360C1E17
:100050000C3606500F0B0C260936070E086E0A0EDA
:100060000B060C26FDE30A060B26FDE309060A260D
:10007000FDE308060926FDE3EA6A080EE96E070EAD
:100080000D140D9CE9060D1407E10DB8E92A0DB811
:1000900003D0200E006E1CD0E9260C0EE95CD8B40B
:1000A0000D8CEF50006E08E10DBC06D00DB814D0D9
:1000B0000DB602D0200E0BD00DAE06D02D0E006E68
:1000C000ED500D9C0D9E04D00D860D98300E00262F
:1000D00000509EA8FED7AD6EEE500DACDED7BFEF40
:1000E00000F0EA6A060EE96EEF500EE0030E016EB4
:1000F000006A002EFED7012EFBD73C0E006E002EAC
:10010000FED700D0EF2EF2D7C6EF00F0F86AD09EEF
:10011000B896400EAF6EA60EAC6E900EAB6EC15090
:10012000C00B0F09C16E070EB46EC150C00B0B0996
:10013000C16EC050C00B0709C06EC08EC280000ED9
:10014000016EC250C30B0110C26E070E006E002E6E
:10015000FED700D00000C282C2B2FED7C3CF04F0E7
:10016000C4CF05F0520E006E002EFED700D0000066
:10017000020EE96E05C007F004C006F043D70D0E6D
:100180009EA8FED7AD6E640E066EABD7D8D703001F
:020000040030CA
:0E0000003FCC3E1E0087A1000FC00FE00F4056
:00000001FF
;PIC18F4550
;CRC=2895  CREATED="28-jun-15 04:29"
