:04000000F0EF10F01D
:08000800046ED8CF05F0E0CF33
:1000100006F00001E9CF0CF0EACF07F0E1CF08F0DD
:10002000E2CF09F0D9CF0AF0DACF0BF0F3CF12F01C
:10003000F4CF13F0FACF14F000C00EF001C00FF0AF
:1000400002C010F003C011F0F2AA2AEF00F0F2B4DF
:100050008FEF00F09DAA30EF00F09EBA70EF00F035
:100060000EC000F00FC001F010C002F011C003F08C
:100070000CC0E9FF07C0EAFF078E08C0E1FF09C016
:10008000E2FF0AC0D9FF0BC0DAFF12C0F3FF13C0B2
:10009000F4FF14C0FAFF045006C0E0FF05C0D8FF0B
:1000A00010007C2020254C6920207C2A0000436F12
:1000B0006E65637461646F2E2E2E2E2A0000090077
:1000C000F5520DE0F6CF3BF5F7CF3CF5F5509EA885
:1000D000FED7AD6E3BC5F6FF3CC5F7FFF0D712006B
:1000E000176A9EAAFED7AECF17F01750230801E17A
:1000F0008C7C1980175058080CE10501136B126BAA
:10010000116B180EF66E010EF76E0001D8DF199014
:1001100019929E9A30EF00F0582B302A000005010A
:100120001E6BF29A2650120DF350206B1F6F0F0EAC
:100130001F25016E000E2021036E0150750FE96E20
:10014000000E0320EA6EE8CFEFFF2650120DF350A9
:10015000206B1F6F090E1F25016E000E2021036EFC
:100160000150750FE96E000E0320EA6E016A026A03
:10017000036AFDCFEFFF01C0ECFF02C0ECFF03C03C
:10018000ECFF2650120DF350206B1F6F090E1F2538
:10019000016E000E2021036E0150750F016E000EDE
:1001A000032201C01FF503C020F52650120DF350A5
:1001B000226B216F090E2125016E000E2221036E94
:1001C0000150750FE96E000E0320EA6EEFCF21F5A6
:1001D000ECCF22F5ECCF23F5ECCF24F5276B266B83
:1001E000006A00502111006EFE502211016E26514E
:1001F0002311026E2751241120C5EAFF1FC5E9FF14
:1002000000C0EFFF01C0ECFF02C0ECFFEC6E265017
:10021000120DF350206B1F6F090E1F25016E000E8B
:100220002021036E0150750F016E000E032201C0E4
:100230001FF503C020F52650120DF350226B216FDD
:10024000090E2125016E000E2221036E0150750F4B
:10025000E96E000E0320EA6EEFCF21F5ECCF22F518
:10026000ECCF23F5ECCF24F5266B006A016A005031
:100270002111006E01502211016EFF502311026EF8
:100280002651241120C5EAFF1FC5E9FF00C0EFFF7A
:1002900001C0ECFF02C0ECFFEC6E30500108D8B09A
:1002A00077D0146B010E1E6F30501E5D3CE2036A66
:1002B0001E51260FE96E000E0320EA6EEF50120D5C
:1002C000F350206B1F6F110E1F25016E000E2021B1
:1002D000036E0150750FE96E000E0320EA6EEF50B9
:1002E000145D1DE21EC55FF0036A1E51260FE96E04
:1002F000000E0320EA6EEF50120DF350206B1F6FBB
:10030000110E1F25016E000E2021036E0150750F86
:10031000E96E000E0320EA6EEFCF14F502D0010E55
:100320005F6E1E2BC1D726C05EF0036A5F50260F9A
:10033000E96E000E0320EA6EEFCF26F05FC01EF5D7
:10034000010E305C1E5D1AE2036A1E51260F016E1B
:10035000000E032203C020F5010E1E25036A260F9E
:10036000E96E000E0320EA6EEFCF21F520C5EAFF0B
:1003700001C0E9FF21C5EFFF1E2BE2D7010E305C63
:10038000036A260FE96E000E0320EA6E5EC0EFFFDF
:10039000132D10D0112BD8B4122B18530BE1175377
:1003A00009E11651125D06E303E11551115D02E307
:1003B000126B116BFF6A280EFE6EFD6AF29400014B
:1003C00030EF00F00501366B356B346B336B3A6BF5
:1003D000396B386B376B2B512F5D376F2C51305980
:1003E000386F2D513159396F2E5132593A6F366B62
:1003F000356B346B010E336F36512E5DD8A063D050
:100400000DE135512D5DD8A05ED008E134512C5D51
:10041000D8A059D003E12B51335D55E2366B356BD3
:10042000346B010E336F36512E5D44E30BE13551D1
:100430002D5D40E307E134512C5D3CE303E12B519A
:10044000335D38E2366B356B346B010E336F3653E8
:1004500027E1355325E1345323E13351130820E3D9
:10046000366B356B346B010E336F365310E13553F9
:100470000EE134530CE13351130809E3010E332725
:10048000D8B0342BD8B4352BD8B4362BEED7010ED8
:100490003327D8B0342BD8B4352BD8B4362BD7D794
:1004A0008A84010E3327D8B0342BD8B4352BD8B476
:1004B000362BB9D7010E3327D8B0342BD8B4352B0F
:1004C000D8B4362B99D7366B356B346B010E336F3E
:1004D00036513A5DD8A063D00DE13551395DD8A0D1
:1004E0005ED008E13451385DD8A059D003E13751CE
:1004F000335D55E2366B356B346B010E336F36511D
:100500003A5D44E30BE13551395D40E307E1345195
:10051000385D3CE303E13751335D38E2366B356BD0
:10052000346B010E336F365327E1355325E13453D5
:1005300023E13351130820E3366B356B346B010E26
:10054000336F365310E135530EE134530CE1335120
:10055000130809E3010E3327D8B0342BD8B4352B58
:10056000D8B4362BEED7010E3327D8B0342BD8B4FD
:10057000352BD8B4362BD7D78A94010E3327D8B071
:10058000342BD8B4352BD8B4362BB9D7010E33273A
:10059000D8B0342BD8B4352BD8B4362B99D700012A
:1005A0008EEF08F04C6973746F342A004C697374D1
:1005B0006F352A004C6973746F362A008E0E006EF8
:1005C00031C501F030C502F0036A015209E102C0F1
:1005D00001F0026A080E005E015202E1006A08D0D2
:1005E000D89001BE04D0023601360006F9D7019E2C
:1005F000120005012E51D8B471D0006E3251D8B41A
:100600006DD0002604E3810E002668E204D07F0E40
:10061000005E64E363E02FC536F53351361B2F8F40
:10062000338F31513503F4CF38F530513403F4CFE3
:1006300003F0F3CF37F53503F3503827F450372361
:10064000000E032231513403F3503827F45037237E
:10065000000E026A032202222F513503F35037277E
:10066000F4500322000E02222F513403F3500326CC
:10067000F4500222000E016A012231513303F3507B
:100680003727F4500322000E022201223051330397
:10069000F3500326F4500222000E01222F5133039F
:1006A000F3500226F4500122002A01BE05D037374C
:1006B0000336023601360006000E37AF0AD0032A91
:1006C00002220122015005E1025003E1035001E141
:1006D000002A36BF018E36AF019E04D0006A016A3F
:1006E000026A036A0001120005013051D8B4A5D096
:1006F0003C6F3451D8B4A1D03C5F05E37F0E3C275A
:10070000D8B09BD006D0810E3C5FD8A096D0D8B48C
:1007100094D03CC500F0016A026A036A3B6B31C5A4
:100720003AF53A8F32C539F533C538F5190E3C6FB5
:100730003751385F0DE2010E395F0AE23A5F08E295
:100740003B5F06E23B2B3A2B392B3751382728D019
:100750003651395F12E2010E3A5F0FE23B5F0DE264
:100760003B2B3A2B365139273751382719E3392B90
:1007700017E13A2B15E13B2B13D0355180093A5F35
:100780000EE2010E3B5F0BE23B2B355180093A270D
:1007900036513927E9E33A2BE7E13B2BE5D70380D4
:1007A0003C2F01D00BD0D890383739373A373B3708
:1007B000D8900336023601363D37BAD73DA106D070
:1007C000D8900132023203323D3302D0000635E0C8
:1007D0003DBF1ED0D890383739373A373B3737517D
:1007E000385F07E2010E395F04E23A5F02E23B5FE5
:1007F0001AE33651395F05E2010E3A5F02E23B5FD0
:1008000012E3355180093A5F03E2010E3B5F0BE3CF
:10081000032A09E1022A07E1012A05E1002A0DE085
:1008200001320232033231C53CF535513C1B3CAF3D
:1008300002D0018E06D0019E04D0006A016A026ACD
:10084000036A0001120005012A51B6082A6F036AE3
:100850002BC52EF52B8FD8902B332C332D33033211
:100860000232013200322A2FF6D72EAF0BD0001EF3
:10087000011E021E031E002AD8B4012AD8B4022A7F
:10088000D8B4032A000172EF0AF00900F6CF3CF554
:10089000F7CF3DF5F5509EA8FED7AD6E3CC5F6FFEF
:1008A0003DC5F7FF05013B2F01D002D00001EDD778
:1008B00000011200D8B204D0050EEA6E4F0EE96EA8
:1008C000006A016A026A036A05014F6B506B516B43
:1008D000526B4E514D114C114B112CE0200E536FA9
:1008E000D8904737483749374A374F37503751370D
:1008F00052374E51525D08E14D51515D05E14C5169
:10090000505D02E14B514F5D0FE34B514F5F4C5136
:10091000D8A04C3D505F4D51D8A04D3D515F4E5138
:10092000D8A04E3D525FD8800036013602360336DD
:10093000532FD6D74FC5EFFF50C5ECFF51C5ECFF85
:1009400052C5ECFF00011200E9500501306F2FAFD6
:100950000DD03007308B2C1F2D1F2E1F2F1F2C2B3F
:10096000D8B42D2BD8B42E2BD8B42F2B3B0E376FE9
:100970009A0E366FCA0E356F346B0A0E326FD882FC
:10098000050EEA6E2C0EE96E2FC54AF52EC549F507
:100990002DC548F52CC547F537C54EF536C54DF57F
:1009A00035C54CF534C54BF5000184DF01500052CC
:1009B00013E105013251010AD8A402D000010CD084
:1009C00030510DE00F0B325D01E028E230BF26D040
:1009D00030BD05D0200E1DD0200E0501301730ABE4
:1009E0000AD0309B00C030F52D0E9EA8FED7AD6E0C
:1009F00030C500F0306B300E30AB0BD0309B00C0F8
:100A000030F52D0E9EA8FED7AD6E30C500F0306BD0
:100A1000300E002600509EA8FED7AD6ED89237C586
:100A20004AF536C549F535C548F534C547F54E6B29
:100A30004D6B4C6B0A0E4B6F00013CDF03C037F56A
:100A400002C036F501C035F500C034F50501322F7E
:100A500096D70001120056616C6F722073656E7339
:100A600061646F202852504D293A20254C642A0099
:100A70004C6973746F382A00F29A83EF12F0050103
:100A8000436B446B010E456FDA6AD96A050E486FF5
:100A90003B0E476F050EEA6E3F0EE96E48C5E2FF5A
:100AA00047C5E1FF45C546F5D890E550EE02F35045
:100AB0004323F4504423462FF7D743C5DEFF44C5F4
:100AC00043F5446BD8B0442B472BD8B4482B452B67
:100AD00045510508DFE100011200E95005013F6FB3
:100AE0003B0E466F9A0E456FCA0E446F436B0A0E5B
:100AF000416FD882050EEA6E3B0EE96E3EC54AF59F
:100B00003DC549F53CC548F53BC547F546C54EF5DD
:100B100045C54DF544C54CF543C54BF50001CADE4E
:100B20000150005213E105014151010AD8A402D03D
:100B300000010CD03F510CE00F0B415D01E00EE2D3
:100B40003FBF0CD03FBD04D0200E03D005013F6B4A
:100B5000300E002600509EA8FED7AD6ED89246C536
:100B60004AF545C549F544C548F543C547F54E6BBB
:100B70004D6B4C6B0A0E4B6F00019CDE03C046F5BB
:100B800002C045F501C044F500C043F50501412F01
:100B9000B0D700011200FE0ED76E180ED66EF28A84
:100BA00012007C20202050726F6365736F20207CC0
:100BB00020204469722E496E6920207C20204469DF
:100BC000722E46696E20207C20204469722E41637B
:100BD0007420207C2A007C202020202020254C7599
:100BE00020202020207C202020254C752020202023
:100BF0007C202020254C75202020207C20202025B2
:100C00004C75202020207C2A000061646D696E4FA5
:100C10004B2A0000800ED8A202D00501341B05012A
:100C2000396B3A6B30C538F53451381B2F51D8B475
:100C3000DFD0376F006E3351D8B4E3D0375FD8B40C
:100C400083D03EE334C53DF53D8F35C53CF536C513
:100C50003BF53A6BD8903D333C333B333A33372F37
:100C6000F8D738AF03D03981E0D03991379139893D
:100C7000050EEA6E320EE96EEBD0399938BF0AD014
:100C800037A113D03D333C333B333A33002AD8B439
:100C9000C7D00BD03DBF0CD0D8903A373B373C374C
:100CA0003D370006D8B4BCD0F5D7398D6DD0399D0D
:100CB00030C538F530AF02D03D8FABD03D9FA9D0C5
:100CC00033C537F533C500F02F51375F30C53DF5DB
:100CD0003D8F31C53CF532C53BF53A6BD8903D337D
:100CE0003C333B333A33372FF8D738AF03D039830F
:100CF0009CD039933791398B050EEA6E360EE96E2A
:100D0000A7D0399B38BF0AD037A113D03D333C332D
:100D10003B333A33002AD8B483D00BD03DBF0CD03C
:100D2000D8903A373B373C373D370006D8B478D0B7
:100D3000F5D7398F29D0399F34C538F534AF02D073
:100D40003D8F67D03D9F65D034C53DF53D8F35C59E
:100D50003CF536C53BF538AF04D03D9F398565D0AD
:100D600039953A6B3791050EEA6E320EE96E70D006
:100D700038BF1CD030C538F537A106D03D333C33E1
:100D80003B333A33002A4CE03AAF0BD03B2B09E11E
:100D90003C2B07E13D2B05E13D333C333B33002A3F
:100DA0003FE039BD84D739BFC6D71CD0800E3D1B6C
:100DB0003DAF04D03AD034C538F50AD030C538F547
:100DC0003D5306E13C5304E13B5302E1006A21D06C
:100DD0003DBF08D0D8903A373B373C373D37002EDF
:100DE000F7D71ED038AF02D03D8F13D03D9F11D022
:100DF00033C500F034C53DF535C53CF536C53BF58A
:100E000008D02FC500F030C53DF531C53CF532C5E1
:100E10003BF53DC501F03CC502F03BC503F034D0C5
:100E2000006A016A026A036A2FD03A6B3B1F3C1FBB
:100E30003D1F3A1F3A2B05E13B2B03E13C2B01E11F
:100E40003D2B39B112D739B354D739B589D7B3D778
:100E5000EF503B2705E33C2B03E13D2BD8B4378112
:100E6000ED52EF503C2703E33D2BD8B43781ED52D0
:100E7000EF50EFBE01D0800A3D27D8B0378139B995
:100E8000FCD639BB3ED774D700017CEF0DF031C5DD
:100E900038F505013551381B38AF05D0D894D890B6
:100EA00031BFD8802FD031C538F534C539F5305130
:100EB000395F06E038AF26D0D850010AD86E22D06C
:100EC00035C539F53151395F06E038AF1BD0D85000
:100ED000010AD86E17D036C539F53251395F06E0B0
:100EE00038AF10D0D850010AD86E0CD037C539F5BC
:100EF0003351395F06E038AF05D0D850010AD86EBB
:100F000001D0D8900001CDEF0DF09D9A199017C037
:100F10002AF503EF0CF09D8A400E9EA8FED7AD6E19
:100F2000520E006E002EFED700D0000019A204D091
:100F30002A0E9EA8FED7AD6E04EF20F005012B53BC
:100F400030E0036A3050260FE96E000E0320EA6E8F
:100F50002BC5EFFF2B51120DF3502E6B2D6F0D0E85
:100F60002D25016E000E2E21036E0150750FE96EC6
:100F7000000E0320EA6E010EEF6E2B51120DF3509E
:100F80002E6B2D6F110E2D25016E000E2E21036E7E
:100F90000150750FE96E000E0320EA6E2CC5EFFFBD
:100FA000302A0001120005012B6B2A512B5D0AE249
:100FB000290E2B25E96E010EEA6ED8B0EA2AEF6AF7
:100FC0002B2BF3D700012CEF20F005013151016AE2
:100FD000305D03E230C500F00CD0006A080E326FBD
:100FE000303700363151005CD8B0006E0136322FF8
:100FF000F7D700011200C00EF2129D8AEDEF10F03B
:101000008C72316A3150950808E3396A3950C70843
:0E10100002E3392AFBD7312AF5D7F2D71200B6
:0A1046008C74326A3250310808E35E
:101050003A6A3A50C70802E33A2AFBD7322AF5D750
:04106000F2D71200B1
:0E1092008C76336A3350950808E33B6A3B5076
:1010A000C70802E33B2AFBD7332AF5D7F2D7120051
:0810D80005012A6B8C78346AD3
:1010E0003450130808E33C6A3C50130802E33C2ADE
:1010F000FBD7342AF5D771C02EF570C02DF56FC01F
:101100002CF56EC02BF56DC032F56CC031F56BC09F
:1011100030F56AC02FF50001E2EF01F005012A5118
:1011200014080FE2A40EF66E050EF76E166AF2BEF4
:10113000168EF29E00015FEC00F016BEF28E0501E5
:101140002A6B2A2B440E186E040E256E2550120DA4
:10115000F3502C6B2B6F100E2B25016E000E2C21E3
:10116000036E0150750FE96E000E0320EA6EEF2A40
:081170001982B4D7000112003E
:0611DA0005012A6B2B6BDE
:1011E000356B3551090818E3036A35512B0FE96E49
:1011F000050E0320EA6E35C5EFFF356A355031081C
:1012000008E33D6A3D50310802E33D2AFBD7352A09
:10121000F5D78C7A352BE5D72A5114080FE2AC0E9E
:10122000F66E050EF76E166AF2BE168EF29E00017D
:101230005FEC00F016BEF28E05012A6B2A2B440EDD
:10124000186E050E256E2550120DF350376B366F54
:10125000100E3625016E000E3721036E0150750FFA
:10126000E96E000E0320EA6EEF2A1982B8D700015A
:0212700012006A
:0412DC0005012A6B73
:1012E0008C70366A3650950808E33E6A3E503108E5
:1012F00002E33E2AFBD7362AF5D72A5114080FE21B
:10130000B40EF66E050EF76E166AF2BE168EF29EDB
:1013100000015FEC00F016BEF28E05012A6B2A2B4D
:10132000440E186E060E256E2550120DF3502C6BD0
:101330002B6F100E2B25016E000E2C21036E015019
:10134000750FE96E000E0320EA6EEF2A1982C8D7E6
:041350000001120086
:0213DE00606B42
:1013E000C150C00BC16EC050C00B0709C06EC09E7B
:1013F000C280602B000E016EC250C30B0110C26E82
:10140000290E006E002EFED70000C282C2B2FED7A7
:10141000C4CF72F07C0E006E002EFED700D060515B
:101420001408D8B082D00501316B72C030F50001CC
:10143000DEEC02F003C02DF502C02CF501C02BF547
:1014400000C02AF503C031F502C030F501C02FF508
:1014500000C02EF50501356B346B200E336F810E05
:10146000326F0001F9EC02F003C02DF502C02CF53B
:1014700001C02BF500C02AF503C033F502C032F5D8
:1014800001C031F500C030F50501376B366B7F0EBA
:10149000356F860E346F000174EC03F003C02DF538
:1014A00002C02CF501C02BF500C02AF503C031F5B0
:1014B00002C030F501C02FF500C02EF50501356BD7
:1014C000346B7A0E336F870E326F0001F9EC02F045
:1014D00003C02DF502C02CF501C02BF500C02AF584
:1014E00023EF04F003C065F002C064F001C063F0B4
:1014F00000C062F0560EF66E0A0EF76E150E05016C
:101500003B6F000145EC04F0410EE96E65C02FF51C
:1015100064C02EF563C02DF562C02CF5A4EC04F078
:101520002A0E9EA8FED7AD6E606B665308E1675326
:1015300006E1685304E1695302E18A922AD08A8263
:10154000665306E1675304E1685302E1695321E001
:101550006951655D0EE30BE16851645D0AE307E1E3
:101560006751635D06E303E16251665D02E28A90C2
:1015700010D06551695D0DE30BE16451685D09E3CD
:1015800007E16351675D05E303E16651625D01E2D6
:101590008A80440E186E070E256E2550120DF350EA
:1015A00005012B6B2A6F100E2A25016E000E2B21D0
:1015B000036E0150750FE96E000E0320EA6EEF2AEC
:1015C0001982010E376E3750310809E3010E3F6E64
:1015D0003F50310802E33F2AFBD7372AF4D70001F6
:0415E00008D7120016
:1016C00005012A6B8C74386A3850950808E3406A23
:1016D0004050310802E3402AFBD7382AF5D72A5177
:1016E00014080FE2700EF66E0A0EF76E166AF2BE5E
:1016F000168EF29E00015FEC00F016BEF28E050120
:101700002A6B2A2B440E186E080E256E2550120DDA
:10171000F3502C6B2B6F100E2B25016E000E2C211D
:10172000036E0150750FE96E000E0320EA6EEF2A7A
:081730001982C8D70001120064
:0A1806001750230803E017502A08CA
:1018100006E117502A0802E1246A19820BD0036AF4
:1018200024501A0FE96E000E0320EA6E17C0EFFF76
:10183000010E242619A2DBD2300E1A5C456E466AD0
:10184000476A486A300E1B5C496E4A6A4B6A4C6AAA
:10185000300E1C5C4D6E4E6A4F6A506A300E1D5C35
:10186000516E526A536A546A300E1E5C556E566A47
:10187000576A586A300E1F5C596E5A6A5B6A5C6A16
:1018800058C03EF557C03DF556C03CF555C03BF538
:101890000501426B416B406B0A0E3F6F00013FEC4C
:1018A00005F00050592405012C6F01505A202D6F6E
:1018B00002505B202E6F03505C202F6F54C03EF50A
:1018C00053C03DF552C03CF551C03BF5426B416BF6
:1018D000406B640E3F6F00013FEC05F000500501C6
:1018E0002C2701502D2302502E2303502F2350C0AC
:1018F0003EF54FC03DF54EC03CF54DC03BF5426B4B
:10190000416B030E406FE80E3F6F00013FEC05F0A6
:10191000005005012C2701502D2302502E23035087
:101920002F234CC03EF54BC03DF54AC03CF549C0A5
:101930003BF5426B416B270E406F100E3F6F00016D
:101940003FEC05F005012C5100262D5101222E51AE
:1019500002222F51032203C044F002C043F001C011
:1019600042F000C041F0A20EF66E000EF76E030EBC
:101970003B6F000145EC04F0410EE96E44C02FF5C9
:1019800043C02EF542C02DF541C02CF5A4EC04F067
:10199000A80EF66E000EF76E040E05013B6F0001F7
:1019A00045EC04F045C000F04650036E02E10052E1
:1019B00025E0035004E1010E005CD8B4FBD00350D5
:1019C00004E1020E005CD8B4FAD0035004E1030E27
:1019D000005CD8B455D1035004E1040E005CD8B4C7
:1019E00052D1035004E1050E005CD8B44FD103502E
:1019F00004E1060E005CD8B4A6D1F9D105012B6B29
:101A00002B510908D8A0D4D0010E2B25120DF3506C
:101A10002D6B2C6F010E2C25016E000E2D21036EF7
:101A20000150750FE96E000E0320EA6EEFCF00F053
:101A3000ECCF01F0ECCF02F0ECCF03F00050415CB2
:101A4000D8A4B4D00150425CD8A4B0D00250435CBA
:101A5000D8A4ACD00350445CD8A4A8D0010E2B2548
:101A6000120DF3502D6B2C6F100E2C25016E000EF5
:101A70002D21036E0150750FE96E000E0320EA6EF2
:101A8000EF2A010E2B25120DF3502D6B2C6F750EC6
:101A90002C25E96E000E2D21EA6EEFCF25F0010E08
:101AA0002B25120DF3502D6B2C6F100E2C25016E73
:101AB000000E2D21036E0150750FE96E000E0320FC
:101AC000EA6E316BEFCF30F50001DEEC02F0EACFC9
:101AD0002EF5E9CF2DF5D89203C032F502C031F5CD
:101AE00001C030F500C02FF50501366B356B346B46
:101AF000336B00010AEF06F02EC5EAFF2DC5E9FFA2
:101B000003C02FF502C02EF501C02DF500C02CF545
:101B10002FC533F52EC532F52DC531F52CC530F561
:101B20000501376B366B356B800E346F000174EC3A
:101B300003F003C02FF502C02EF501C02DF500C043
:101B40002CF5010E05012B25120DF350316B306F72
:101B5000100E3025016E000E3121036E0150750FFD
:101B6000E96E000E0320EA6ED890EF30316B306FD3
:101B70000001DEEC02F003C033F502C032F501C013
:101B800031F500C030F52FC537F52EC536F52DC51A
:101B900035F52CC534F547EF07F003E3430E186E17
:101BA00002D0440E186E0B0E05012B6F2B2B28D77D
:101BB00000011DD14D0E186E41C025F018D1500EF8
:101BC000186E58C03EF557C03DF556C03CF555C09F
:101BD0003BF50501426B416B406B0A0E3F6F000104
:101BE0003FEC05F00050592405012C6F01505A209C
:101BF0002D6F02505B202E6F03505C202F6F54C05E
:101C00003EF553C03DF552C03CF551C03BF5426B2B
:101C1000416B406B640E3F6F00013FEC05F00050DC
:101C200005012C2701502D2302502E2303502F2372
:101C300050C03EF54FC03DF54EC03CF54DC03BF5A4
:101C4000426B416B030E406FE80E3F6F00013FECAB
:101C500005F005012C5100262D5101222E510222A2
:101C60002F51032203C044F002C043F001C042F0F0
:101C700000C041F041C025F049C019F50001B7D0BE
:101C8000450E186EB4D0580E186EB1D058C03EF53F
:101C900057C03DF556C03CF555C03BF50501426BBC
:101CA000416B406B0A0E3F6F00013FEC05F00050A6
:101CB000592405012C6F01505A202D6F02505B20D2
:101CC0002E6F03505C202F6F54C03EF553C03DF57E
:101CD00052C03CF551C03BF5426B416B406B640E0A
:101CE0003F6F00013FEC05F0005005012C2701502B
:101CF0002D2302502E2303502F2350C03EF54FC0FA
:101D00003DF54EC03CF54DC03BF5426B416B030EBB
:101D1000406FE80E3F6F00013FEC05F005012C51CC
:101D200000262D5101222E5102222F51032203C0E1
:101D300069F002C068F001C067F000C066F0550E9F
:101D4000186E000154D058C03EF557C03DF556C03E
:101D50003CF555C03BF50501426B416B406B0A0EEB
:101D60003F6F00013FEC05F00050592405012C6F36
:101D700001505A202D6F02505B202E6F03505C20C3
:101D80002F6F54C03EF553C03DF552C03CF551C0D5
:101D90003BF5426B416B406B640E3F6F00013FECC3
:101DA00005F005012C5100262D5101222E51022251
:101DB0002F51032203C071F002C070F001C06FF018
:101DC00000C06EF0000171530AE1705308E16F51D9
:101DD00000080BE2FF0A03E16E51F40806E2716BA2
:101DE000706B010E6F6FF40E6E6F560E186E8BEFE8
:101DF00007F005012B6B30502B5D44E2036A2B5139
:101E0000260FE96E000E0320EA6E2A51EF5C38E1DE
:101E10002BC52CF530502C5D19E2036A2C51260F8E
:101E20002D6F000E03202E6F010E2C25036A260F46
:101E3000E96E000E0320EA6EEFCF2FF52EC5EAFF04
:101E40002DC5E9FF2FC5EFFF2C2BE4D7036A2B51DB
:101E5000260FE96E000E0320EA6EEF50120DF350CC
:101E60002E6B2D6F0D0E2D25016E000E2E21036E93
:101E70000150750FE96E000E0320EA6EEF6A30061E
:101E80002B2BB9D70001C0EF20F0200E05012BA9A4
:101E9000300E2C6F2AC500F02AAF08D0001E002A91
:101EA00000C02AF52D0E2C6F2B8F2B8101502AC5D7
:101EB00030F5640E316F0001E5EC07F000C02AF543
:101EC000300E012405012D6F2AC530F50A0E316F41
:101ED0000001E5EC07F0300E002405012F6F300EF5
:101EE00001242E6F2CC500F0300E2D5D04E02B83F5
:101EF0002BBF2B8512D02CC52DF5200E2C6F300E4C
:101F00002E5D04E02B812BBF2B8307D0D8A42B811F
:101F100004E12DC52EF5200E2D6F2BB505D02BB36A
:101F200007D02BB109D00CD02C519EA8FED7AD6E96
:101F30002D519EA8FED7AD6E2E519EA8FED7AD6E38
:101F40002F519EA8FED7AD6E000162EF20F0F2CFB8
:101F50000DF0F29EE824F76AF736730FF66E1F0E47
:101F6000F7220A00F550FA6E0800F5500DBEF28E09
:101F7000F96E1E402E40CE4080418041804180411C
:101F80008041804180413840804180419240804181
:101F900080418041804118414C418041F4404D2BAB
:101FA000332A00004D2B302A0000452B312A000037
:101FB000582B302A000052706D206465736561648F
:101FC000612072656369626964613A20254C752AF3
:101FD000000070773120726563696269646F3A202E
:101FE000254C752A0000000E936E956E8A6A8C6AE5
:101FF000EAEF10F0756B796B786B776B766B816BB2
:10200000806B7F6B7E6B7D6B7C6B7B6B7A6B826B8B
:10201000856B866B010E876F8B6B8A6B100E896FD9
:10202000886B936B926B916F906B8F6B8E6B8D6FD8
:10203000440E8C6F946B976B986B020E996F9D6B2F
:102040009C6B100E9B6F460E9A6FA56BA46B100EC7
:10205000A36F460EA26FA16BA06B100E9F6F900E28
:102060009E6FA66BA96BAA6B030EAB6FAF6BAE6BCB
:10207000100EAD6F920EAC6FB76BB66B100EB56FE6
:10208000920EB46FB36BB26B100EB16FD60EB06F11
:10209000B86BBB6BBC6B040EBD6FC16BC06B100E1D
:1020A000BF6FD80EBE6FC96BC86B100EC76FD80E4E
:1020B000C66FC56BC46B110EC36FD80EC26FCA6BEF
:1020C000CD6BCE6B050ECF6FD36BD26B110ED16F74
:1020D000DA0ED06FDB6BDA6B110ED96FDA0ED86FB8
:1020E000D76BD66B120ED56FDA0ED46FDC6BDF6B4D
:1020F000E06B060EE16FE56BE46B120EE36FDC0E36
:10210000E26FED6BEC6B120EEB6FDC0EEA6FE96BBE
:10211000E86B130EE76FDC0EE66FEE6BF16BF26BA4
:10212000070EF36FF76BF66B130EF56FDE0EF46FA1
:10213000FF6BFE6B130EFD6FDE0EFC6FFB6BFA6B1D
:10214000160EF96FBE0EF86F0101006B036B046B86
:10215000080E056F096B086B160E076FC00E066F31
:10216000116B106B160E0F6FC00E0E6F0D6B0C6B9C
:10217000180E0B6F050E0A6F126B156B166B090E9E
:10218000176F1B6B1A6B250E196F020E186F236BDE
:10219000226B250E216F020E206F1F6B1E6B280E07
:1021A0001D6F500E1C6F246B276B286B0001EBEF2B
:1021B00010F0870ED56EEEEF10F0AE0EF66E000E3C
:1021C000F76E166AF2BE168EF29E5FEC00F016BE37
:1021D000F28E09D70FD7FBEF07F0EBD744EF11F0E2
:1021E000F86AD09E078EB896400EAF6EA60EAC6E03
:1021F000900EAB6E176A186A1990246A1992306AA9
:10220000486A476A466A456A4C6A4B6A4A6A496A3A
:10221000506A4F6A4E6A4D6A546A536A526A516AEA
:10222000586A576A566A556A5C6A5B6A5A6A596A9A
:10223000606B616B656B646B636B626B696B686B26
:10224000676B666B6D6B6C6B010E6B6FF40E6A6F78
:10225000716B706B6F6B6E6B726B736B746B1994CD
:102260000501126B116B136B146B186B176B166BEC
:10227000156B1B6B1A6BC150C00B0F09C16E070E9B
:0E228000B46E1A6A000199D700ED20F0030039
:0E2502003CEF05F0A20EF66E0B0EF76E166A99
:10251000F2BE168EF29E5FEC00F016BEF28E050142
:102520002A6B30502A5DD8B0E5D0036A2A51260FB5
:10253000E96E000E0320EA6E2E6B2D6B2C6BEFCF35
:102540002BF52EC53EF52DC53DF52CC53CF52BC50F
:102550003BF5426B416B406B120E3F6F00013FEC4D
:1025600005F001C03CF5010E05010024016E000ECE
:102570003C21036E0150750FE96E000E0320EA6ED8
:10258000EFCF2FF5ECCF30F5ECCF31F5ECCF32F5C6
:102590002EC53EF52DC53DF52CC53CF52BC53BF5AF
:1025A000426B416B406B120E3F6F00013FEC05F038
:1025B00001C03CF5050E05010024016E000E3C2112
:1025C000036E0150750FE96E000E0320EA6EEFCF27
:1025D00033F5ECCF34F5ECCF35F5ECCF36F52EC531
:1025E0003EF52DC53DF52CC53CF52BC53BF5426BA5
:1025F000416B406B120E3F6F00013FEC05F001C0D4
:102600003CF5090E05010024016E000E3C21036E0D
:102610000150750FE96E000E0320EA6EEFCF37F51B
:10262000ECCF38F5ECCF39F5ECCF3AF5D60EF66EA7
:102630000B0EF76E070E3B6F000145EC04F0410EE8
:10264000E96E2EC53EF52DC53DF52CC53CF52BC5D7
:102650003BF56DEC05F0E00EF66E0B0EF76E090E15
:1026600005013B6F000145EC04F0410EE96E32C5F7
:102670003EF531C53DF530C53CF52FC53BF56DEC5C
:1026800005F0EC0EF66E0B0EF76E080E05013B6FB3
:10269000000145EC04F0410EE96E36C53EF535C546
:1026A0003DF534C53CF533C53BF56DEC05F0F70E53
:1026B000F66E0B0EF76E080E05013B6F000145EC40
:1026C00004F0410EE96E3AC53EF539C53DF538C511
:1026D0003CF537C53BF56DEC05F0020EF66E0C0EC1
:1026E000F76E060E05013B6F000145EC04F0050195
:1026F0002A2B17D70A0EF66E0C0EF76E166AF2BE6C
:10270000168EF29E00015FEC00F016BEF28ECBEC4E
:1027100005F0440E186E090E256E2550120DF3506B
:1027200005013C6B3B6F100E3B25016E000E3C21FA
:10273000036E0150750FE96E000E0320EA6EEF2A5A
:0A2740001982FFD70001DDD6120058
:1040000019A002D085EF07F019A2BAD01992430E79
:10401000185CEA0FD8B0B4D0160FA7EF0FF025C088
:104020002BF505012C6B00019EEC07F0A9D025C0F3
:104030002AF5F9EF0EF0A4D00501135103081AE098
:10404000186B176B166B25C015F5030E136F15C58E
:104050002AF50001D3EF07F09E0EF66E1F0EF76EE5
:10406000166AF2BE168EF29E5FEC00F016BEF28E5D
:104070000FD00501136BA40EF66E1F0EF76E166AB5
:10408000F2BE168EF29E00015FEC00F016BEF28EBC
:1040900077D0290E2524E96E010EEA6ED8B0EA2AFF
:1040A00019C5EFFF500E9EA8FED7AD6E2B0E9EA831
:1040B000FED7AD6E19C52AF5180E05012B6F00014C
:1040C00045EF0FF02A0E9EA8FED7AD6E59D0010E17
:1040D0000501136F126B116BAA0EF66E1F0EF76EB1
:1040E000166AF2BE168EF29E00015FEC00F016BE5C
:1040F000F28E46D00501136B126B116BB00EF66E8B
:104100001F0EF76E166AF2BE168EF29E00015FEC6D
:1041100000F016BEF28E34D0B60EF66E1F0EF76E9D
:10412000160E05013B6F000145EC04F0410EE96EEF
:1041300069C03EF568C03DF567C03CF566C03BF51B
:104140006DEC05F02A0E9EA8FED7AD6ED20EF66E6F
:104150001F0EF76E0E0E05013B6F000145EC04F0DB
:10416000410EE96E71C03EF570C03DF56FC03CF583
:104170006EC03BF56DEC05F02A0E9EA8FED7AD6E25
:104180000501132D18D0290E1125E96E010E1221FB
:10419000EA6EEF5210E0290E1125E96E010E122190
:1041A000EA6EEFCF2AF52AC52BF5020E2C6F00011F
:1041B0009EEC07F005013052D8B47FD02650120D86
:1041C000F3502B6B2A6F0D0E2A25016E000E2B214A
:1041D000036E0150750FE96E000E0320EA6EEF2C9E
:1041E00036D00001CBEC05F02650120DF35005013E
:1041F0002B6B2A6F0D0E2A25016E000E2B21036EEC
:104200000150750FE96E000E0320EA6E020EEF6E8C
:104210002650120DF3502B6B2A6F010E2A25016ECA
:10422000000E2B21036E0150750FE96E000E032066
:10423000EA6EEFCF2AF5ECCF2BF5ECCF2CF5ECCFD7
:104240002DF52BC5FAFF2AC5E8FFF96E35D02650AB
:10425000120DF3502B6B2A6F0F0E2A25016E000EE4
:104260002B21036E0150750FE96E000E0320EA6EDC
:10427000EFCFE8FF0001CBEC05F02650120DF35014
:1042800005012B6B2A6F090E2A25016E000E2B21CA
:10429000036E0150750FE96E000E0320EA6EEFCF3A
:1042A0002AF5ECCF2BF5ECCF2CF5ECCF2DF52BC56B
:1042B000FAFF2AC5E8FFF96E09D0132D07D0305256
:1042C00005E10001CBEC05F0FFD70501000198D610
:0242D0001200DA
:020000040030CA
:0E00000027CC3E1E0007A1000FC00FE00F40EE
:00000001FF
;PIC18F4550
;CRC=042B  CREATED="30-jun-15 17:50"
